{
  "contractName": "CryptoZombies",
  "abi": [
    {
      "inputs": [
        {
          "internalType": "address",
          "name": "_kittyAddress",
          "type": "address"
        }
      ],
      "stateMutability": "nonpayable",
      "type": "constructor"
    },
    {
      "anonymous": false,
      "inputs": [
        {
          "indexed": true,
          "internalType": "address",
          "name": "owner",
          "type": "address"
        },
        {
          "indexed": true,
          "internalType": "address",
          "name": "approved",
          "type": "address"
        },
        {
          "indexed": true,
          "internalType": "uint256",
          "name": "tokenId",
          "type": "uint256"
        }
      ],
      "name": "Approval",
      "type": "event"
    },
    {
      "anonymous": false,
      "inputs": [
        {
          "indexed": true,
          "internalType": "address",
          "name": "owner",
          "type": "address"
        },
        {
          "indexed": true,
          "internalType": "address",
          "name": "operator",
          "type": "address"
        },
        {
          "indexed": false,
          "internalType": "bool",
          "name": "approved",
          "type": "bool"
        }
      ],
      "name": "ApprovalForAll",
      "type": "event"
    },
    {
      "anonymous": false,
      "inputs": [
        {
          "indexed": true,
          "internalType": "address",
          "name": "previousOwner",
          "type": "address"
        },
        {
          "indexed": true,
          "internalType": "address",
          "name": "newOwner",
          "type": "address"
        }
      ],
      "name": "OwnershipTransferred",
      "type": "event"
    },
    {
      "anonymous": false,
      "inputs": [
        {
          "indexed": true,
          "internalType": "address",
          "name": "from",
          "type": "address"
        },
        {
          "indexed": true,
          "internalType": "address",
          "name": "to",
          "type": "address"
        },
        {
          "indexed": true,
          "internalType": "uint256",
          "name": "tokenId",
          "type": "uint256"
        }
      ],
      "name": "Transfer",
      "type": "event"
    },
    {
      "anonymous": false,
      "inputs": [
        {
          "indexed": false,
          "internalType": "uint256",
          "name": "amount",
          "type": "uint256"
        }
      ],
      "name": "Withdrawn",
      "type": "event"
    },
    {
      "anonymous": false,
      "inputs": [
        {
          "indexed": false,
          "internalType": "uint256",
          "name": "id",
          "type": "uint256"
        },
        {
          "indexed": false,
          "internalType": "string",
          "name": "name",
          "type": "string"
        },
        {
          "indexed": false,
          "internalType": "uint256",
          "name": "dna",
          "type": "uint256"
        }
      ],
      "name": "ZombieCreated",
      "type": "event"
    },
    {
      "inputs": [
        {
          "internalType": "address",
          "name": "to",
          "type": "address"
        },
        {
          "internalType": "uint256",
          "name": "tokenId",
          "type": "uint256"
        }
      ],
      "name": "approve",
      "outputs": [],
      "stateMutability": "nonpayable",
      "type": "function"
    },
    {
      "inputs": [
        {
          "internalType": "address",
          "name": "owner",
          "type": "address"
        }
      ],
      "name": "balanceOf",
      "outputs": [
        {
          "internalType": "uint256",
          "name": "",
          "type": "uint256"
        }
      ],
      "stateMutability": "view",
      "type": "function",
      "constant": true
    },
    {
      "inputs": [
        {
          "internalType": "uint256",
          "name": "tokenId",
          "type": "uint256"
        }
      ],
      "name": "getApproved",
      "outputs": [
        {
          "internalType": "address",
          "name": "",
          "type": "address"
        }
      ],
      "stateMutability": "view",
      "type": "function",
      "constant": true
    },
    {
      "inputs": [
        {
          "internalType": "address",
          "name": "owner",
          "type": "address"
        },
        {
          "internalType": "address",
          "name": "operator",
          "type": "address"
        }
      ],
      "name": "isApprovedForAll",
      "outputs": [
        {
          "internalType": "bool",
          "name": "",
          "type": "bool"
        }
      ],
      "stateMutability": "view",
      "type": "function",
      "constant": true
    },
    {
      "inputs": [],
      "name": "name",
      "outputs": [
        {
          "internalType": "string",
          "name": "",
          "type": "string"
        }
      ],
      "stateMutability": "view",
      "type": "function",
      "constant": true
    },
    {
      "inputs": [],
      "name": "owner",
      "outputs": [
        {
          "internalType": "address",
          "name": "",
          "type": "address"
        }
      ],
      "stateMutability": "view",
      "type": "function",
      "constant": true
    },
    {
      "inputs": [
        {
          "internalType": "uint256",
          "name": "tokenId",
          "type": "uint256"
        }
      ],
      "name": "ownerOf",
      "outputs": [
        {
          "internalType": "address",
          "name": "",
          "type": "address"
        }
      ],
      "stateMutability": "view",
      "type": "function",
      "constant": true
    },
    {
      "inputs": [],
      "name": "renounceOwnership",
      "outputs": [],
      "stateMutability": "nonpayable",
      "type": "function"
    },
    {
      "inputs": [
        {
          "internalType": "address",
          "name": "from",
          "type": "address"
        },
        {
          "internalType": "address",
          "name": "to",
          "type": "address"
        },
        {
          "internalType": "uint256",
          "name": "tokenId",
          "type": "uint256"
        }
      ],
      "name": "safeTransferFrom",
      "outputs": [],
      "stateMutability": "nonpayable",
      "type": "function"
    },
    {
      "inputs": [
        {
          "internalType": "address",
          "name": "from",
          "type": "address"
        },
        {
          "internalType": "address",
          "name": "to",
          "type": "address"
        },
        {
          "internalType": "uint256",
          "name": "tokenId",
          "type": "uint256"
        },
        {
          "internalType": "bytes",
          "name": "_data",
          "type": "bytes"
        }
      ],
      "name": "safeTransferFrom",
      "outputs": [],
      "stateMutability": "nonpayable",
      "type": "function"
    },
    {
      "inputs": [
        {
          "internalType": "address",
          "name": "operator",
          "type": "address"
        },
        {
          "internalType": "bool",
          "name": "approved",
          "type": "bool"
        }
      ],
      "name": "setApprovalForAll",
      "outputs": [],
      "stateMutability": "nonpayable",
      "type": "function"
    },
    {
      "inputs": [
        {
          "internalType": "bytes4",
          "name": "interfaceId",
          "type": "bytes4"
        }
      ],
      "name": "supportsInterface",
      "outputs": [
        {
          "internalType": "bool",
          "name": "",
          "type": "bool"
        }
      ],
      "stateMutability": "view",
      "type": "function",
      "constant": true
    },
    {
      "inputs": [],
      "name": "symbol",
      "outputs": [
        {
          "internalType": "string",
          "name": "",
          "type": "string"
        }
      ],
      "stateMutability": "view",
      "type": "function",
      "constant": true
    },
    {
      "inputs": [
        {
          "internalType": "uint256",
          "name": "tokenId",
          "type": "uint256"
        }
      ],
      "name": "tokenURI",
      "outputs": [
        {
          "internalType": "string",
          "name": "",
          "type": "string"
        }
      ],
      "stateMutability": "view",
      "type": "function",
      "constant": true
    },
    {
      "inputs": [
        {
          "internalType": "address",
          "name": "from",
          "type": "address"
        },
        {
          "internalType": "address",
          "name": "to",
          "type": "address"
        },
        {
          "internalType": "uint256",
          "name": "tokenId",
          "type": "uint256"
        }
      ],
      "name": "transferFrom",
      "outputs": [],
      "stateMutability": "nonpayable",
      "type": "function"
    },
    {
      "inputs": [
        {
          "internalType": "address",
          "name": "newOwner",
          "type": "address"
        }
      ],
      "name": "transferOwnership",
      "outputs": [],
      "stateMutability": "nonpayable",
      "type": "function"
    },
    {
      "inputs": [
        {
          "internalType": "uint256",
          "name": "",
          "type": "uint256"
        }
      ],
      "name": "zombies",
      "outputs": [
        {
          "internalType": "string",
          "name": "name",
          "type": "string"
        },
        {
          "internalType": "uint256",
          "name": "dna",
          "type": "uint256"
        },
        {
          "internalType": "uint256",
          "name": "level",
          "type": "uint256"
        },
        {
          "internalType": "uint256",
          "name": "readyTime",
          "type": "uint256"
        },
        {
          "internalType": "uint256",
          "name": "winCount",
          "type": "uint256"
        },
        {
          "internalType": "uint256",
          "name": "lossCount",
          "type": "uint256"
        }
      ],
      "stateMutability": "view",
      "type": "function",
      "constant": true
    },
    {
      "inputs": [
        {
          "internalType": "address",
          "name": "_kittyAddress",
          "type": "address"
        }
      ],
      "name": "setKittyContractAddress",
      "outputs": [],
      "stateMutability": "nonpayable",
      "type": "function"
    },
    {
      "inputs": [
        {
          "internalType": "uint256",
          "name": "_fee",
          "type": "uint256"
        }
      ],
      "name": "setLevelUpFee",
      "outputs": [],
      "stateMutability": "nonpayable",
      "type": "function"
    },
    {
      "inputs": [],
      "name": "getLevelUpFee",
      "outputs": [
        {
          "internalType": "uint256",
          "name": "",
          "type": "uint256"
        }
      ],
      "stateMutability": "view",
      "type": "function",
      "constant": true
    },
    {
      "inputs": [],
      "name": "withdraw",
      "outputs": [],
      "stateMutability": "payable",
      "type": "function",
      "payable": true
    },
    {
      "inputs": [],
      "name": "viewBalance",
      "outputs": [
        {
          "internalType": "uint256",
          "name": "",
          "type": "uint256"
        }
      ],
      "stateMutability": "view",
      "type": "function",
      "constant": true
    },
    {
      "inputs": [
        {
          "internalType": "uint256",
          "name": "_zombieId",
          "type": "uint256"
        }
      ],
      "name": "levelUp",
      "outputs": [],
      "stateMutability": "payable",
      "type": "function",
      "payable": true
    },
    {
      "inputs": [
        {
          "internalType": "uint256",
          "name": "_zombieId",
          "type": "uint256"
        },
        {
          "internalType": "string",
          "name": "_newName",
          "type": "string"
        }
      ],
      "name": "changeName",
      "outputs": [],
      "stateMutability": "nonpayable",
      "type": "function"
    },
    {
      "inputs": [
        {
          "internalType": "uint256",
          "name": "_zombieId",
          "type": "uint256"
        },
        {
          "internalType": "uint256",
          "name": "_newDna",
          "type": "uint256"
        }
      ],
      "name": "changDna",
      "outputs": [],
      "stateMutability": "nonpayable",
      "type": "function"
    },
    {
      "inputs": [
        {
          "internalType": "address",
          "name": "_owner",
          "type": "address"
        }
      ],
      "name": "getZombiesByOwner",
      "outputs": [
        {
          "internalType": "uint256[]",
          "name": "",
          "type": "uint256[]"
        }
      ],
      "stateMutability": "view",
      "type": "function",
      "constant": true
    },
    {
      "inputs": [
        {
          "internalType": "string",
          "name": "_name",
          "type": "string"
        }
      ],
      "name": "createRandomZombie",
      "outputs": [],
      "stateMutability": "nonpayable",
      "type": "function"
    },
    {
      "inputs": [
        {
          "internalType": "uint256",
          "name": "_zombieId",
          "type": "uint256"
        },
        {
          "internalType": "uint256",
          "name": "_kittyId",
          "type": "uint256"
        }
      ],
      "name": "feedOnKitty",
      "outputs": [],
      "stateMutability": "nonpayable",
      "type": "function"
    },
    {
      "inputs": [
        {
          "internalType": "uint256",
          "name": "_zombieId",
          "type": "uint256"
        },
        {
          "internalType": "uint256",
          "name": "_targetId",
          "type": "uint256"
        }
      ],
      "name": "attack",
      "outputs": [],
      "stateMutability": "nonpayable",
      "type": "function"
    }
  ],
  "bytecode": "0x60806040526010600755600754600a6200001a91906200047d565b600855603c6009556046600c556000600d5566038d7ea4c68000600e553480156200004457600080fd5b506040516200472a3803806200472a83398181016040528101906200006a919062000538565b6040518060400160405280600d81526020017f43727970746f5a6f6d62696573000000000000000000000000000000000000008152506040518060400160405280600481526020017f43525a4f000000000000000000000000000000000000000000000000000000008152508160009080519060200190620000ee92919062000240565b5080600190805190602001906200010792919062000240565b5050506200012a6200011e6200017260201b60201c565b6200017a60201b60201c565b80600b60006101000a81548173ffffffffffffffffffffffffffffffffffffffff021916908373ffffffffffffffffffffffffffffffffffffffff16021790555050620005cf565b600033905090565b6000600660009054906101000a900473ffffffffffffffffffffffffffffffffffffffff16905081600660006101000a81548173ffffffffffffffffffffffffffffffffffffffff021916908373ffffffffffffffffffffffffffffffffffffffff1602179055508173ffffffffffffffffffffffffffffffffffffffff168173ffffffffffffffffffffffffffffffffffffffff167f8be0079c531659141344cd1fd0a4f28419497f9722a3daafe3b4186f6b6457e060405160405180910390a35050565b8280546200024e9062000599565b90600052602060002090601f016020900481019282620002725760008555620002be565b82601f106200028d57805160ff1916838001178555620002be565b82800160010185558215620002be579182015b82811115620002bd578251825591602001919060010190620002a0565b5b509050620002cd9190620002d1565b5090565b5b80821115620002ec576000816000905550600101620002d2565b5090565b7f4e487b7100000000000000000000000000000000000000000000000000000000600052601160045260246000fd5b60008160011c9050919050565b6000808291508390505b60018511156200037e57808604811115620003565762000355620002f0565b5b6001851615620003665780820291505b808102905062000376856200031f565b945062000336565b94509492505050565b6000826200039957600190506200046c565b81620003a957600090506200046c565b8160018114620003c25760028114620003cd5762000403565b60019150506200046c565b60ff841115620003e257620003e1620002f0565b5b8360020a915084821115620003fc57620003fb620002f0565b5b506200046c565b5060208310610133831016604e8410600b84101617156200043d5782820a905083811115620004375762000436620002f0565b5b6200046c565b6200044c84848460016200032c565b92509050818404811115620004665762000465620002f0565b5b81810290505b9392505050565b6000819050919050565b60006200048a8262000473565b9150620004978362000473565b9250620004c67fffffffffffffffffffffffffffffffffffffffffffffffffffffffffffffffff848462000387565b905092915050565b600080fd5b600073ffffffffffffffffffffffffffffffffffffffff82169050919050565b60006200050082620004d3565b9050919050565b6200051281620004f3565b81146200051e57600080fd5b50565b600081519050620005328162000507565b92915050565b600060208284031215620005515762000550620004ce565b5b6000620005618482850162000521565b91505092915050565b7f4e487b7100000000000000000000000000000000000000000000000000000000600052602260045260246000fd5b60006002820490506001821680620005b257607f821691505b60208210811415620005c957620005c86200056a565b5b50919050565b61414b80620005df6000396000f3fe6080604052600436106101c25760003560e01c80636b2f60c8116100f7578063a22cb46511610095578063ccf670f811610064578063ccf670f814610625578063e1fa76381461064e578063e985e9c514610677578063f2fde38b146106b4576101c2565b8063a22cb4651461056d578063b88d4fde14610596578063c39cbef1146105bf578063c87b56dd146105e8576101c2565b806376a18999116100d157806376a18999146104c55780637bff0a01146104ee5780638da5cb5b1461051757806395d89b4114610542576101c2565b80636b2f60c81461044657806370a0823114610471578063715018a6146104ae576101c2565b806323b872dd1161016457806342842e0e1161013e57806342842e0e1461037a5780634412e104146103a35780635f4623f1146103e05780636352211e14610409576101c2565b806323b872dd1461031c5780633ccfd60b146103455780633ff1e05b1461034f576101c2565b8063095ea7b3116101a0578063095ea7b31461026c5780630ce90ec21461029557806317a7f4cc146102b15780632052465e146102da576101c2565b806301ffc9a7146101c757806306fdde0314610204578063081812fc1461022f575b600080fd5b3480156101d357600080fd5b506101ee60048036038101906101e99190612a9d565b6106dd565b6040516101fb9190612ae5565b60405180910390f35b34801561021057600080fd5b506102196107bf565b6040516102269190612b99565b60405180910390f35b34801561023b57600080fd5b5061025660048036038101906102519190612bf1565b610851565b6040516102639190612c5f565b60405180910390f35b34801561027857600080fd5b50610293600480360381019061028e9190612ca6565b6108d6565b005b6102af60048036038101906102aa9190612bf1565b6109ee565b005b3480156102bd57600080fd5b506102d860048036038101906102d39190612ce6565b610a3a565b005b3480156102e657600080fd5b5061030160048036038101906102fc9190612bf1565b610b58565b60405161031396959493929190612d35565b60405180910390f35b34801561032857600080fd5b50610343600480360381019061033e9190612d9d565b610c2c565b005b61034d610c8c565b005b34801561035b57600080fd5b50610364610d95565b6040516103719190612df0565b60405180910390f35b34801561038657600080fd5b506103a1600480360381019061039c9190612d9d565b610e19565b005b3480156103af57600080fd5b506103ca60048036038101906103c59190612e0b565b610e39565b6040516103d79190612ef6565b60405180910390f35b3480156103ec57600080fd5b5061040760048036038101906104029190612e0b565b610f2a565b005b34801561041557600080fd5b50610430600480360381019061042b9190612bf1565b610fea565b60405161043d9190612c5f565b60405180910390f35b34801561045257600080fd5b5061045b61109c565b6040516104689190612df0565b60405180910390f35b34801561047d57600080fd5b5061049860048036038101906104939190612e0b565b6110a6565b6040516104a59190612df0565b60405180910390f35b3480156104ba57600080fd5b506104c361115e565b005b3480156104d157600080fd5b506104ec60048036038101906104e79190612ce6565b6111e6565b005b3480156104fa57600080fd5b506105156004803603810190610510919061304d565b61129b565b005b34801561052357600080fd5b5061052c6112cb565b6040516105399190612c5f565b60405180910390f35b34801561054e57600080fd5b506105576112f5565b6040516105649190612b99565b60405180910390f35b34801561057957600080fd5b50610594600480360381019061058f91906130c2565b611387565b005b3480156105a257600080fd5b506105bd60048036038101906105b891906131a3565b61139d565b005b3480156105cb57600080fd5b506105e660048036038101906105e19190613226565b6113ff565b005b3480156105f457600080fd5b5061060f600480360381019061060a9190612bf1565b6114b4565b60405161061c9190612b99565b60405180910390f35b34801561063157600080fd5b5061064c60048036038101906106479190612bf1565b61155b565b005b34801561065a57600080fd5b5061067560048036038101906106709190612ce6565b6115e1565b005b34801561068357600080fd5b5061069e60048036038101906106999190613282565b6117a1565b6040516106ab9190612ae5565b60405180910390f35b3480156106c057600080fd5b506106db60048036038101906106d69190612e0b565b611835565b005b60007f80ac58cd000000000000000000000000000000000000000000000000000000007bffffffffffffffffffffffffffffffffffffffffffffffffffffffff1916827bffffffffffffffffffffffffffffffffffffffffffffffffffffffff191614806107a857507f5b5e139f000000000000000000000000000000000000000000000000000000007bffffffffffffffffffffffffffffffffffffffffffffffffffffffff1916827bffffffffffffffffffffffffffffffffffffffffffffffffffffffff1916145b806107b857506107b78261192d565b5b9050919050565b6060600080546107ce906132f1565b80601f01602080910402602001604051908101604052809291908181526020018280546107fa906132f1565b80156108475780601f1061081c57610100808354040283529160200191610847565b820191906000526020600020905b81548152906001019060200180831161082a57829003601f168201915b5050505050905090565b600061085c82611997565b61089b576040517f08c379a000000000000000000000000000000000000000000000000000000000815260040161089290613395565b60405180910390fd5b6004600083815260200190815260200160002060009054906101000a900473ffffffffffffffffffffffffffffffffffffffff169050919050565b60006108e182610fea565b90508073ffffffffffffffffffffffffffffffffffffffff168373ffffffffffffffffffffffffffffffffffffffff161415610952576040517f08c379a000000000000000000000000000000000000000000000000000000000815260040161094990613427565b60405180910390fd5b8073ffffffffffffffffffffffffffffffffffffffff16610971611a03565b73ffffffffffffffffffffffffffffffffffffffff1614806109a0575061099f8161099a611a03565b6117a1565b5b6109df576040517f08c379a00000000000000000000000000000000000000000000000000000000081526004016109d6906134b9565b60405180910390fd5b6109e98383611a0b565b505050565b600e5434146109fc57600080fd5b600a8181548110610a1057610a0f6134d9565b5b90600052602060002090600602016002016000815480929190610a3290613537565b919050555050565b6000600b60009054906101000a900473ffffffffffffffffffffffffffffffffffffffff1673ffffffffffffffffffffffffffffffffffffffff1663e98b7f4d836040518263ffffffff1660e01b8152600401610a979190612df0565b61014060405180830381865afa158015610ab5573d6000803e3d6000fd5b505050506040513d601f19601f82011682018060405250810190610ad991906135aa565b90919293949596979850909192939495969750909192939495965090919293949550909192939450909192935090919250909150905080915050610b5383826040518060400160405280600581526020017f6b69747479000000000000000000000000000000000000000000000000000000815250611ac4565b505050565b600a8181548110610b6857600080fd5b9060005260206000209060060201600091509050806000018054610b8b906132f1565b80601f0160208091040260200160405190810160405280929190818152602001828054610bb7906132f1565b8015610c045780601f10610bd957610100808354040283529160200191610c04565b820191906000526020600020905b815481529060010190602001808311610be757829003601f168201915b5050505050908060010154908060020154908060030154908060040154908060050154905086565b610c3d610c37611a03565b82611c34565b610c7c576040517f08c379a0000000000000000000000000000000000000000000000000000000008152600401610c73906136fb565b60405180910390fd5b610c87838383611d12565b505050565b610c94611a03565b73ffffffffffffffffffffffffffffffffffffffff16610cb26112cb565b73ffffffffffffffffffffffffffffffffffffffff1614610d08576040517f08c379a0000000000000000000000000000000000000000000000000000000008152600401610cff90613767565b60405180910390fd5b6000479050610d156112cb565b73ffffffffffffffffffffffffffffffffffffffff166108fc829081150290604051600060405180830381858888f19350505050158015610d5a573d6000803e3d6000fd5b507f430648de173157e069201c943adb2d4e340e7cf5b27b1b09c9cb852f03d63b5681604051610d8a9190612df0565b60405180910390a150565b6000610d9f611a03565b73ffffffffffffffffffffffffffffffffffffffff16610dbd6112cb565b73ffffffffffffffffffffffffffffffffffffffff1614610e13576040517f08c379a0000000000000000000000000000000000000000000000000000000008152600401610e0a90613767565b60405180910390fd5b47905090565b610e348383836040518060200160405280600081525061139d565b505050565b60606000610e46836110a6565b67ffffffffffffffff811115610e5f57610e5e612f22565b5b604051908082528060200260200182016040528015610e8d5781602001602082028036833780820191505090505b5090506000805b600a80549050811015610f1f57610eaa81610fea565b73ffffffffffffffffffffffffffffffffffffffff168573ffffffffffffffffffffffffffffffffffffffff161415610f0c5780838381518110610ef157610ef06134d9565b5b6020026020010181815250508180610f0890613537565b9250505b8080610f1790613537565b915050610e94565b508192505050919050565b610f32611a03565b73ffffffffffffffffffffffffffffffffffffffff16610f506112cb565b73ffffffffffffffffffffffffffffffffffffffff1614610fa6576040517f08c379a0000000000000000000000000000000000000000000000000000000008152600401610f9d90613767565b60405180910390fd5b80600b60006101000a81548173ffffffffffffffffffffffffffffffffffffffff021916908373ffffffffffffffffffffffffffffffffffffffff16021790555050565b6000806002600084815260200190815260200160002060009054906101000a900473ffffffffffffffffffffffffffffffffffffffff169050600073ffffffffffffffffffffffffffffffffffffffff168173ffffffffffffffffffffffffffffffffffffffff161415611093576040517f08c379a000000000000000000000000000000000000000000000000000000000815260040161108a906137f9565b60405180910390fd5b80915050919050565b6000600e54905090565b60008073ffffffffffffffffffffffffffffffffffffffff168273ffffffffffffffffffffffffffffffffffffffff161415611117576040517f08c379a000000000000000000000000000000000000000000000000000000000815260040161110e9061388b565b60405180910390fd5b600360008373ffffffffffffffffffffffffffffffffffffffff1673ffffffffffffffffffffffffffffffffffffffff168152602001908152602001600020549050919050565b611166611a03565b73ffffffffffffffffffffffffffffffffffffffff166111846112cb565b73ffffffffffffffffffffffffffffffffffffffff16146111da576040517f08c379a00000000000000000000000000000000000000000000000000000000081526004016111d190613767565b60405180910390fd5b6111e46000611f79565b565b60148281600a82815481106111fe576111fd6134d9565b5b906000526020600020906006020160020154101561121b57600080fd5b61122484610fea565b73ffffffffffffffffffffffffffffffffffffffff163373ffffffffffffffffffffffffffffffffffffffff161461125b57600080fd5b6008548361126991906138da565b925082600a85815481106112805761127f6134d9565b5b90600052602060002090600602016001018190555050505050565b60006112a6336110a6565b146112b057600080fd5b60006112bb8261203f565b90506112c7828261207f565b5050565b6000600660009054906101000a900473ffffffffffffffffffffffffffffffffffffffff16905090565b606060018054611304906132f1565b80601f0160208091040260200160405190810160405280929190818152602001828054611330906132f1565b801561137d5780601f106113525761010080835404028352916020019161137d565b820191906000526020600020905b81548152906001019060200180831161136057829003601f168201915b5050505050905090565b611399611392611a03565b838361219e565b5050565b6113ae6113a8611a03565b83611c34565b6113ed576040517f08c379a00000000000000000000000000000000000000000000000000000000081526004016113e4906136fb565b60405180910390fd5b6113f98484848461230b565b50505050565b60028281600a8281548110611417576114166134d9565b5b906000526020600020906006020160020154101561143457600080fd5b61143d84610fea565b73ffffffffffffffffffffffffffffffffffffffff163373ffffffffffffffffffffffffffffffffffffffff161461147457600080fd5b82600a8581548110611489576114886134d9565b5b906000526020600020906006020160000190805190602001906114ad92919061298e565b5050505050565b60606114bf82611997565b6114fe576040517f08c379a00000000000000000000000000000000000000000000000000000000081526004016114f59061397d565b60405180910390fd5b6000611508612367565b905060008151116115285760405180602001604052806000815250611553565b806115328461237e565b6040516020016115439291906139d9565b6040516020818303038152906040525b915050919050565b611563611a03565b73ffffffffffffffffffffffffffffffffffffffff166115816112cb565b73ffffffffffffffffffffffffffffffffffffffff16146115d7576040517f08c379a00000000000000000000000000000000000000000000000000000000081526004016115ce90613767565b60405180910390fd5b80600e8190555050565b6115ea82610fea565b73ffffffffffffffffffffffffffffffffffffffff163373ffffffffffffffffffffffffffffffffffffffff161461162157600080fd5b61162a81610fea565b73ffffffffffffffffffffffffffffffffffffffff163373ffffffffffffffffffffffffffffffffffffffff16141561166257600080fd5b6000600a8381548110611678576116776134d9565b5b906000526020600020906006020190506000600a838154811061169e5761169d6134d9565b5b9060005260206000209060060201905060006116ba60646124df565b9050600c54811161175c576117098583600101546040518060400160405280600681526020017f7a6f6d6269650000000000000000000000000000000000000000000000000000815250611ac4565b82600201600081548092919061171e90613537565b919050555082600401600081548092919061173890613537565b919050555081600501600081548092919061175290613537565b919050555061179a565b6117658361253b565b81600401600081548092919061177a90613537565b919050555082600501600081548092919061179490613537565b91905055505b5050505050565b6000600560008473ffffffffffffffffffffffffffffffffffffffff1673ffffffffffffffffffffffffffffffffffffffff16815260200190815260200160002060008373ffffffffffffffffffffffffffffffffffffffff1673ffffffffffffffffffffffffffffffffffffffff16815260200190815260200160002060009054906101000a900460ff16905092915050565b61183d611a03565b73ffffffffffffffffffffffffffffffffffffffff1661185b6112cb565b73ffffffffffffffffffffffffffffffffffffffff16146118b1576040517f08c379a00000000000000000000000000000000000000000000000000000000081526004016118a890613767565b60405180910390fd5b600073ffffffffffffffffffffffffffffffffffffffff168173ffffffffffffffffffffffffffffffffffffffff161415611921576040517f08c379a000000000000000000000000000000000000000000000000000000000815260040161191890613a6f565b60405180910390fd5b61192a81611f79565b50565b60007f01ffc9a7000000000000000000000000000000000000000000000000000000007bffffffffffffffffffffffffffffffffffffffffffffffffffffffff1916827bffffffffffffffffffffffffffffffffffffffffffffffffffffffff1916149050919050565b60008073ffffffffffffffffffffffffffffffffffffffff166002600084815260200190815260200160002060009054906101000a900473ffffffffffffffffffffffffffffffffffffffff1673ffffffffffffffffffffffffffffffffffffffff1614159050919050565b600033905090565b816004600083815260200190815260200160002060006101000a81548173ffffffffffffffffffffffffffffffffffffffff021916908373ffffffffffffffffffffffffffffffffffffffff160217905550808273ffffffffffffffffffffffffffffffffffffffff16611a7e83610fea565b73ffffffffffffffffffffffffffffffffffffffff167f8c5be1e5ebec7d5bd14f71427d1e84f3dd0314c0f7b2291e5b200ac8c7c3b92560405160405180910390a45050565b611acd83610fea565b73ffffffffffffffffffffffffffffffffffffffff163373ffffffffffffffffffffffffffffffffffffffff1614611b0457600080fd5b611b0d83612554565b611b1657600080fd5b60085482611b2491906138da565b91506000600a8481548110611b3c57611b3b6134d9565b5b9060005260206000209060060201905060006002848360010154611b609190613a8f565b611b6a9190613ae5565b9050604051602001611b7b90613b62565b6040516020818303038152906040528051906020012083604051602001611ba29190613b77565b604051602081830303815290604052805190602001201415611be5576063606482611bcd91906138da565b82611bd89190613b8e565b611be29190613a8f565b90505b611c246040518060400160405280600681526020017f4e6f4e616d6500000000000000000000000000000000000000000000000000008152508261207f565b611c2d8261253b565b5050505050565b6000611c3f82611997565b611c7e576040517f08c379a0000000000000000000000000000000000000000000000000000000008152600401611c7590613c34565b60405180910390fd5b6000611c8983610fea565b90508073ffffffffffffffffffffffffffffffffffffffff168473ffffffffffffffffffffffffffffffffffffffff161480611cf857508373ffffffffffffffffffffffffffffffffffffffff16611ce084610851565b73ffffffffffffffffffffffffffffffffffffffff16145b80611d095750611d0881856117a1565b5b91505092915050565b8273ffffffffffffffffffffffffffffffffffffffff16611d3282610fea565b73ffffffffffffffffffffffffffffffffffffffff1614611d88576040517f08c379a0000000000000000000000000000000000000000000000000000000008152600401611d7f90613cc6565b60405180910390fd5b600073ffffffffffffffffffffffffffffffffffffffff168273ffffffffffffffffffffffffffffffffffffffff161415611df8576040517f08c379a0000000000000000000000000000000000000000000000000000000008152600401611def90613d58565b60405180910390fd5b611e03838383612586565b611e0e600082611a0b565b6001600360008573ffffffffffffffffffffffffffffffffffffffff1673ffffffffffffffffffffffffffffffffffffffff1681526020019081526020016000206000828254611e5e9190613b8e565b925050819055506001600360008473ffffffffffffffffffffffffffffffffffffffff1673ffffffffffffffffffffffffffffffffffffffff1681526020019081526020016000206000828254611eb59190613a8f565b92505081905550816002600083815260200190815260200160002060006101000a81548173ffffffffffffffffffffffffffffffffffffffff021916908373ffffffffffffffffffffffffffffffffffffffff160217905550808273ffffffffffffffffffffffffffffffffffffffff168473ffffffffffffffffffffffffffffffffffffffff167fddf252ad1be2c89b69c2b068fc378daa952ba7f163c4a11628f55a4df523b3ef60405160405180910390a4611f7483838361258b565b505050565b6000600660009054906101000a900473ffffffffffffffffffffffffffffffffffffffff16905081600660006101000a81548173ffffffffffffffffffffffffffffffffffffffff021916908373ffffffffffffffffffffffffffffffffffffffff1602179055508173ffffffffffffffffffffffffffffffffffffffff168173ffffffffffffffffffffffffffffffffffffffff167f8be0079c531659141344cd1fd0a4f28419497f9722a3daafe3b4186f6b6457e060405160405180910390a35050565b6000600854826040516020016120559190613b77565b6040516020818303038152906040528051906020012060001c61207891906138da565b9050919050565b60006040518060c0016040528084815260200183815260200160008152602001600954426120ad9190613a8f565b81526020016000815260200160008152509050600a819080600181540180825580915050600190039060005260206000209060060201600090919091909150600082015181600001908051906020019061210892919061298e565b506020820151816001015560408201518160020155606082015181600301556080820151816004015560a08201518160050155505060006001600a805490506121519190613b8e565b905061215d3382612590565b7f90264e9f00e6ebf174337426aed0da44f4b00144e65cf3018af7553c4f33edd181858560405161219093929190613d78565b60405180910390a150505050565b8173ffffffffffffffffffffffffffffffffffffffff168373ffffffffffffffffffffffffffffffffffffffff16141561220d576040517f08c379a000000000000000000000000000000000000000000000000000000000815260040161220490613e02565b60405180910390fd5b80600560008573ffffffffffffffffffffffffffffffffffffffff1673ffffffffffffffffffffffffffffffffffffffff16815260200190815260200160002060008473ffffffffffffffffffffffffffffffffffffffff1673ffffffffffffffffffffffffffffffffffffffff16815260200190815260200160002060006101000a81548160ff0219169083151502179055508173ffffffffffffffffffffffffffffffffffffffff168373ffffffffffffffffffffffffffffffffffffffff167f17307eab39ab6107e8899845ad3d59bd9653f200f220920489ca2b5937696c31836040516122fe9190612ae5565b60405180910390a3505050565b612316848484611d12565b612322848484846125ae565b612361576040517f08c379a000000000000000000000000000000000000000000000000000000000815260040161235890613e94565b60405180910390fd5b50505050565b606060405180602001604052806000815250905090565b606060008214156123c6576040518060400160405280600181526020017f300000000000000000000000000000000000000000000000000000000000000081525090506124da565b600082905060005b600082146123f85780806123e190613537565b915050600a826123f19190613ae5565b91506123ce565b60008167ffffffffffffffff81111561241457612413612f22565b5b6040519080825280601f01601f1916602001820160405280156124465781602001600182028036833780820191505090505b5090505b600085146124d35760018261245f9190613b8e565b9150600a8561246e91906138da565b603061247a9190613a8f565b60f81b8183815181106124905761248f6134d9565b5b60200101907effffffffffffffffffffffffffffffffffffffffffffffffffffffffffffff1916908160001a905350600a856124cc9190613ae5565b945061244a565b8093505050505b919050565b6000600d60008154809291906124f490613537565b9190505550814233600d5460405160200161251193929190613f1d565b6040516020818303038152906040528051906020012060001c61253491906138da565b9050919050565b600954426125499190613a8f565b816003018190555050565b600042600a838154811061256b5761256a6134d9565b5b90600052602060002090600602016003015411159050919050565b505050565b505050565b6125aa828260405180602001604052806000815250612736565b5050565b60006125cf8473ffffffffffffffffffffffffffffffffffffffff16612791565b15612729578373ffffffffffffffffffffffffffffffffffffffff1663150b7a026125f8611a03565b8786866040518563ffffffff1660e01b815260040161261a9493929190613faf565b6020604051808303816000875af192505050801561265657506040513d601f19601f820116820180604052508101906126539190614010565b60015b6126d9573d8060008114612686576040519150601f19603f3d011682016040523d82523d6000602084013e61268b565b606091505b506000815114156126d1576040517f08c379a00000000000000000000000000000000000000000000000000000000081526004016126c890613e94565b60405180910390fd5b805181602001fd5b63150b7a0260e01b7bffffffffffffffffffffffffffffffffffffffffffffffffffffffff1916817bffffffffffffffffffffffffffffffffffffffffffffffffffffffff19161491505061272e565b600190505b949350505050565b61274083836127b4565b61274d60008484846125ae565b61278c576040517f08c379a000000000000000000000000000000000000000000000000000000000815260040161278390613e94565b60405180910390fd5b505050565b6000808273ffffffffffffffffffffffffffffffffffffffff163b119050919050565b600073ffffffffffffffffffffffffffffffffffffffff168273ffffffffffffffffffffffffffffffffffffffff161415612824576040517f08c379a000000000000000000000000000000000000000000000000000000000815260040161281b90614089565b60405180910390fd5b61282d81611997565b1561286d576040517f08c379a0000000000000000000000000000000000000000000000000000000008152600401612864906140f5565b60405180910390fd5b61287960008383612586565b6001600360008473ffffffffffffffffffffffffffffffffffffffff1673ffffffffffffffffffffffffffffffffffffffff16815260200190815260200160002060008282546128c99190613a8f565b92505081905550816002600083815260200190815260200160002060006101000a81548173ffffffffffffffffffffffffffffffffffffffff021916908373ffffffffffffffffffffffffffffffffffffffff160217905550808273ffffffffffffffffffffffffffffffffffffffff16600073ffffffffffffffffffffffffffffffffffffffff167fddf252ad1be2c89b69c2b068fc378daa952ba7f163c4a11628f55a4df523b3ef60405160405180910390a461298a6000838361258b565b5050565b82805461299a906132f1565b90600052602060002090601f0160209004810192826129bc5760008555612a03565b82601f106129d557805160ff1916838001178555612a03565b82800160010185558215612a03579182015b82811115612a025782518255916020019190600101906129e7565b5b509050612a109190612a14565b5090565b5b80821115612a2d576000816000905550600101612a15565b5090565b6000604051905090565b600080fd5b600080fd5b60007fffffffff0000000000000000000000000000000000000000000000000000000082169050919050565b612a7a81612a45565b8114612a8557600080fd5b50565b600081359050612a9781612a71565b92915050565b600060208284031215612ab357612ab2612a3b565b5b6000612ac184828501612a88565b91505092915050565b60008115159050919050565b612adf81612aca565b82525050565b6000602082019050612afa6000830184612ad6565b92915050565b600081519050919050565b600082825260208201905092915050565b60005b83811015612b3a578082015181840152602081019050612b1f565b83811115612b49576000848401525b50505050565b6000601f19601f8301169050919050565b6000612b6b82612b00565b612b758185612b0b565b9350612b85818560208601612b1c565b612b8e81612b4f565b840191505092915050565b60006020820190508181036000830152612bb38184612b60565b905092915050565b6000819050919050565b612bce81612bbb565b8114612bd957600080fd5b50565b600081359050612beb81612bc5565b92915050565b600060208284031215612c0757612c06612a3b565b5b6000612c1584828501612bdc565b91505092915050565b600073ffffffffffffffffffffffffffffffffffffffff82169050919050565b6000612c4982612c1e565b9050919050565b612c5981612c3e565b82525050565b6000602082019050612c746000830184612c50565b92915050565b612c8381612c3e565b8114612c8e57600080fd5b50565b600081359050612ca081612c7a565b92915050565b60008060408385031215612cbd57612cbc612a3b565b5b6000612ccb85828601612c91565b9250506020612cdc85828601612bdc565b9150509250929050565b60008060408385031215612cfd57612cfc612a3b565b5b6000612d0b85828601612bdc565b9250506020612d1c85828601612bdc565b9150509250929050565b612d2f81612bbb565b82525050565b600060c0820190508181036000830152612d4f8189612b60565b9050612d5e6020830188612d26565b612d6b6040830187612d26565b612d786060830186612d26565b612d856080830185612d26565b612d9260a0830184612d26565b979650505050505050565b600080600060608486031215612db657612db5612a3b565b5b6000612dc486828701612c91565b9350506020612dd586828701612c91565b9250506040612de686828701612bdc565b9150509250925092565b6000602082019050612e056000830184612d26565b92915050565b600060208284031215612e2157612e20612a3b565b5b6000612e2f84828501612c91565b91505092915050565b600081519050919050565b600082825260208201905092915050565b6000819050602082019050919050565b612e6d81612bbb565b82525050565b6000612e7f8383612e64565b60208301905092915050565b6000602082019050919050565b6000612ea382612e38565b612ead8185612e43565b9350612eb883612e54565b8060005b83811015612ee9578151612ed08882612e73565b9750612edb83612e8b565b925050600181019050612ebc565b5085935050505092915050565b60006020820190508181036000830152612f108184612e98565b905092915050565b600080fd5b600080fd5b7f4e487b7100000000000000000000000000000000000000000000000000000000600052604160045260246000fd5b612f5a82612b4f565b810181811067ffffffffffffffff82111715612f7957612f78612f22565b5b80604052505050565b6000612f8c612a31565b9050612f988282612f51565b919050565b600067ffffffffffffffff821115612fb857612fb7612f22565b5b612fc182612b4f565b9050602081019050919050565b82818337600083830152505050565b6000612ff0612feb84612f9d565b612f82565b90508281526020810184848401111561300c5761300b612f1d565b5b613017848285612fce565b509392505050565b600082601f83011261303457613033612f18565b5b8135613044848260208601612fdd565b91505092915050565b60006020828403121561306357613062612a3b565b5b600082013567ffffffffffffffff81111561308157613080612a40565b5b61308d8482850161301f565b91505092915050565b61309f81612aca565b81146130aa57600080fd5b50565b6000813590506130bc81613096565b92915050565b600080604083850312156130d9576130d8612a3b565b5b60006130e785828601612c91565b92505060206130f8858286016130ad565b9150509250929050565b600067ffffffffffffffff82111561311d5761311c612f22565b5b61312682612b4f565b9050602081019050919050565b600061314661314184613102565b612f82565b90508281526020810184848401111561316257613161612f1d565b5b61316d848285612fce565b509392505050565b600082601f83011261318a57613189612f18565b5b813561319a848260208601613133565b91505092915050565b600080600080608085870312156131bd576131bc612a3b565b5b60006131cb87828801612c91565b94505060206131dc87828801612c91565b93505060406131ed87828801612bdc565b925050606085013567ffffffffffffffff81111561320e5761320d612a40565b5b61321a87828801613175565b91505092959194509250565b6000806040838503121561323d5761323c612a3b565b5b600061324b85828601612bdc565b925050602083013567ffffffffffffffff81111561326c5761326b612a40565b5b6132788582860161301f565b9150509250929050565b6000806040838503121561329957613298612a3b565b5b60006132a785828601612c91565b92505060206132b885828601612c91565b9150509250929050565b7f4e487b7100000000000000000000000000000000000000000000000000000000600052602260045260246000fd5b6000600282049050600182168061330957607f821691505b6020821081141561331d5761331c6132c2565b5b50919050565b7f4552433732313a20617070726f76656420717565727920666f72206e6f6e657860008201527f697374656e7420746f6b656e0000000000000000000000000000000000000000602082015250565b600061337f602c83612b0b565b915061338a82613323565b604082019050919050565b600060208201905081810360008301526133ae81613372565b9050919050565b7f4552433732313a20617070726f76616c20746f2063757272656e74206f776e6560008201527f7200000000000000000000000000000000000000000000000000000000000000602082015250565b6000613411602183612b0b565b915061341c826133b5565b604082019050919050565b6000602082019050818103600083015261344081613404565b9050919050565b7f4552433732313a20617070726f76652063616c6c6572206973206e6f74206f7760008201527f6e6572206e6f7220617070726f76656420666f7220616c6c0000000000000000602082015250565b60006134a3603883612b0b565b91506134ae82613447565b604082019050919050565b600060208201905081810360008301526134d281613496565b9050919050565b7f4e487b7100000000000000000000000000000000000000000000000000000000600052603260045260246000fd5b7f4e487b7100000000000000000000000000000000000000000000000000000000600052601160045260246000fd5b600061354282612bbb565b91507fffffffffffffffffffffffffffffffffffffffffffffffffffffffffffffffff82141561357557613574613508565b5b600182019050919050565b60008151905061358f81613096565b92915050565b6000815190506135a481612bc5565b92915050565b6000806000806000806000806000806101408b8d0312156135ce576135cd612a3b565b5b60006135dc8d828e01613580565b9a505060206135ed8d828e01613580565b99505060406135fe8d828e01613595565b985050606061360f8d828e01613595565b97505060806136208d828e01613595565b96505060a06136318d828e01613595565b95505060c06136428d828e01613595565b94505060e06136538d828e01613595565b9350506101006136658d828e01613595565b9250506101206136778d828e01613595565b9150509295989b9194979a5092959850565b7f4552433732313a207472616e736665722063616c6c6572206973206e6f74206f60008201527f776e6572206e6f7220617070726f766564000000000000000000000000000000602082015250565b60006136e5603183612b0b565b91506136f082613689565b604082019050919050565b60006020820190508181036000830152613714816136d8565b9050919050565b7f4f776e61626c653a2063616c6c6572206973206e6f7420746865206f776e6572600082015250565b6000613751602083612b0b565b915061375c8261371b565b602082019050919050565b6000602082019050818103600083015261378081613744565b9050919050565b7f4552433732313a206f776e657220717565727920666f72206e6f6e657869737460008201527f656e7420746f6b656e0000000000000000000000000000000000000000000000602082015250565b60006137e3602983612b0b565b91506137ee82613787565b604082019050919050565b60006020820190508181036000830152613812816137d6565b9050919050565b7f4552433732313a2062616c616e636520717565727920666f7220746865207a6560008201527f726f206164647265737300000000000000000000000000000000000000000000602082015250565b6000613875602a83612b0b565b915061388082613819565b604082019050919050565b600060208201905081810360008301526138a481613868565b9050919050565b7f4e487b7100000000000000000000000000000000000000000000000000000000600052601260045260246000fd5b60006138e582612bbb565b91506138f083612bbb565b925082613900576138ff6138ab565b5b828206905092915050565b7f4552433732314d657461646174613a2055524920717565727920666f72206e6f60008201527f6e6578697374656e7420746f6b656e0000000000000000000000000000000000602082015250565b6000613967602f83612b0b565b91506139728261390b565b604082019050919050565b600060208201905081810360008301526139968161395a565b9050919050565b600081905092915050565b60006139b382612b00565b6139bd818561399d565b93506139cd818560208601612b1c565b80840191505092915050565b60006139e582856139a8565b91506139f182846139a8565b91508190509392505050565b7f4f776e61626c653a206e6577206f776e657220697320746865207a65726f206160008201527f6464726573730000000000000000000000000000000000000000000000000000602082015250565b6000613a59602683612b0b565b9150613a64826139fd565b604082019050919050565b60006020820190508181036000830152613a8881613a4c565b9050919050565b6000613a9a82612bbb565b9150613aa583612bbb565b9250827fffffffffffffffffffffffffffffffffffffffffffffffffffffffffffffffff03821115613ada57613ad9613508565b5b828201905092915050565b6000613af082612bbb565b9150613afb83612bbb565b925082613b0b57613b0a6138ab565b5b828204905092915050565b7f6b69747479000000000000000000000000000000000000000000000000000000600082015250565b6000613b4c60058361399d565b9150613b5782613b16565b600582019050919050565b6000613b6d82613b3f565b9150819050919050565b6000613b8382846139a8565b915081905092915050565b6000613b9982612bbb565b9150613ba483612bbb565b925082821015613bb757613bb6613508565b5b828203905092915050565b7f4552433732313a206f70657261746f7220717565727920666f72206e6f6e657860008201527f697374656e7420746f6b656e0000000000000000000000000000000000000000602082015250565b6000613c1e602c83612b0b565b9150613c2982613bc2565b604082019050919050565b60006020820190508181036000830152613c4d81613c11565b9050919050565b7f4552433732313a207472616e736665722066726f6d20696e636f72726563742060008201527f6f776e6572000000000000000000000000000000000000000000000000000000602082015250565b6000613cb0602583612b0b565b9150613cbb82613c54565b604082019050919050565b60006020820190508181036000830152613cdf81613ca3565b9050919050565b7f4552433732313a207472616e7366657220746f20746865207a65726f2061646460008201527f7265737300000000000000000000000000000000000000000000000000000000602082015250565b6000613d42602483612b0b565b9150613d4d82613ce6565b604082019050919050565b60006020820190508181036000830152613d7181613d35565b9050919050565b6000606082019050613d8d6000830186612d26565b8181036020830152613d9f8185612b60565b9050613dae6040830184612d26565b949350505050565b7f4552433732313a20617070726f766520746f2063616c6c657200000000000000600082015250565b6000613dec601983612b0b565b9150613df782613db6565b602082019050919050565b60006020820190508181036000830152613e1b81613ddf565b9050919050565b7f4552433732313a207472616e7366657220746f206e6f6e20455243373231526560008201527f63656976657220696d706c656d656e7465720000000000000000000000000000602082015250565b6000613e7e603283612b0b565b9150613e8982613e22565b604082019050919050565b60006020820190508181036000830152613ead81613e71565b9050919050565b6000819050919050565b613ecf613eca82612bbb565b613eb4565b82525050565b60008160601b9050919050565b6000613eed82613ed5565b9050919050565b6000613eff82613ee2565b9050919050565b613f17613f1282612c3e565b613ef4565b82525050565b6000613f298286613ebe565b602082019150613f398285613f06565b601482019150613f498284613ebe565b602082019150819050949350505050565b600081519050919050565b600082825260208201905092915050565b6000613f8182613f5a565b613f8b8185613f65565b9350613f9b818560208601612b1c565b613fa481612b4f565b840191505092915050565b6000608082019050613fc46000830187612c50565b613fd16020830186612c50565b613fde6040830185612d26565b8181036060830152613ff08184613f76565b905095945050505050565b60008151905061400a81612a71565b92915050565b60006020828403121561402657614025612a3b565b5b600061403484828501613ffb565b91505092915050565b7f4552433732313a206d696e7420746f20746865207a65726f2061646472657373600082015250565b6000614073602083612b0b565b915061407e8261403d565b602082019050919050565b600060208201905081810360008301526140a281614066565b9050919050565b7f4552433732313a20746f6b656e20616c7265616479206d696e74656400000000600082015250565b60006140df601c83612b0b565b91506140ea826140a9565b602082019050919050565b6000602082019050818103600083015261410e816140d2565b905091905056fea2646970667358221220cdff3bd9857cf085b2b6ddadc551cf4f01ece4712a9b1a4a726e8608a7376d4164736f6c634300080c0033",
  "immutableReferences": {},
  "source": "// SPDX-License-Identifier: MIT\npragma solidity >=0.8.12 <0.9.0;\n\nimport \"@openzeppelin/contracts/token/ERC721/ERC721.sol\";\nimport \"@openzeppelin/contracts/access/Ownable.sol\";\nimport \"./IKitty.sol\";\n\n\ncontract CryptoZombies is ERC721, Ownable {\n    // state variables\n    uint dnaDigits = 16;\n    uint dnaModulus = 10 ** dnaDigits;\n    uint cooldownTime = 1 minutes;  // later: change that to 1 days\n    struct Zombie {\n        string name;\n        uint dna;\n        uint level;\n        uint readyTime;\n        uint winCount;\n        uint lossCount;\n    }\n    Zombie[] public zombies;\n    IKitty kittyContract;\n    uint zombieAttackWinProbability = 70;\n    uint randomNonce = 0;\n    uint levelUpFee = 0.001 ether;\n\n    // constructor\n    constructor(address _kittyAddress) ERC721(\"CryptoZombies\", \"CRZO\") {\n        kittyContract = IKitty(_kittyAddress);\n    }\n\n    // events\n    event ZombieCreated(uint id, string name, uint dna);\n    event Withdrawn(uint amount);\n\n    // modifiers\n    modifier aboveLevel(uint _level, uint _zombieId) {\n        require(zombies[_zombieId].level >= _level);\n        _;\n    }\n\n    // external functions\n    function setKittyContractAddress(address _kittyAddress) external onlyOwner {\n        kittyContract = IKitty(_kittyAddress);\n    }\n\n    function setLevelUpFee(uint _fee) external onlyOwner {\n        levelUpFee = _fee;\n    }\n\n    function getLevelUpFee() external view returns (uint) {\n        return levelUpFee;\n    }\n\n    function withdraw() external payable onlyOwner {\n        uint amount = address(this).balance;\n        payable(owner()).transfer(amount);\n        emit Withdrawn(amount);\n    }\n\n    function viewBalance() external view onlyOwner returns (uint) {\n        return address(this).balance;\n    }\n\n    function levelUp(uint _zombieId) external payable {\n        require(msg.value == levelUpFee);\n        zombies[_zombieId].level++;\n    }\n\n    function changeName(uint _zombieId, string memory _newName) external aboveLevel(2, _zombieId) {\n        require(msg.sender == ownerOf(_zombieId));\n        zombies[_zombieId].name = _newName;\n    }\n\n    function changDna(uint _zombieId, uint _newDna) external aboveLevel(20, _zombieId) {\n        require(msg.sender == ownerOf(_zombieId));\n        _newDna = _newDna % dnaModulus;\n        zombies[_zombieId].dna = _newDna;\n    }\n\n    function getZombiesByOwner(address _owner) external view returns (uint[] memory) {\n        uint[] memory ownerZombies = new uint[](balanceOf(_owner));\n        uint counter = 0;\n        for (uint i = 0; i < zombies.length; i++) {\n            if (_owner == ownerOf(i)) {\n                ownerZombies[counter] = i;\n                counter++;\n            }\n        }\n        return ownerZombies;\n    }\n\n    // public functions\n    function createRandomZombie(string memory _name) public {\n        require(balanceOf(msg.sender) == 0);\n        uint randomDna = _generateRandomDna(_name);\n        _createZombie(_name, randomDna);\n    }\n\n    function feedOnKitty(uint _zombieId, uint _kittyId) public {\n        uint genes;\n        (,,,,,,,,,genes) = kittyContract.getKitty(_kittyId);\n        _feedAndMultiply(_zombieId, genes, \"kitty\");\n    }\n\n    function attack(uint _zombieId, uint _targetId) public {\n        require(msg.sender == ownerOf(_zombieId));\n        require(msg.sender != ownerOf(_targetId));\n        Zombie storage ownerZombie = zombies[_zombieId];\n        Zombie storage enemyZombie = zombies[_targetId];\n        uint randomMod = _generateRandomMod(100);\n        if (randomMod <= zombieAttackWinProbability) {\n            _feedAndMultiply(_zombieId, enemyZombie.dna, \"zombie\");\n            ownerZombie.level++;\n            ownerZombie.winCount++;\n            enemyZombie.lossCount++;\n        }\n        else {\n            _triggerCooldown(ownerZombie);\n            enemyZombie.winCount++;\n            ownerZombie.lossCount++;\n        }\n    }\n\n    // internal functions\n    function _createZombie(string memory _name, uint _dna) internal {\n        Zombie memory newZombie = Zombie(_name, _dna, 0, block.timestamp + cooldownTime, 0, 0);\n        zombies.push(newZombie);\n        uint zombieId = zombies.length - 1;\n        _safeMint(msg.sender, zombieId);\n        emit ZombieCreated(zombieId, _name, _dna);\n    }\n\n    function _feedAndMultiply(uint _zombieId, uint _targetDna, string memory _species) internal {\n        require(msg.sender == ownerOf(_zombieId));\n        require(_isReady(_zombieId));\n        _targetDna = _targetDna % dnaModulus;\n        Zombie storage zombie = zombies[_zombieId];\n        uint newDna = (zombie.dna + _targetDna) / 2;\n        if (keccak256(abi.encodePacked(_species)) == keccak256(abi.encodePacked(\"kitty\"))) {\n            newDna = newDna - newDna % 100 + 99;\n        }\n        _createZombie(\"NoName\", newDna);\n        _triggerCooldown(zombie);\n    }\n\n    function _triggerCooldown(Zombie storage _zombie) internal {\n        _zombie.readyTime = block.timestamp + cooldownTime;\n    }\n\n    // private functions\n    function _generateRandomDna(string memory _str) private view returns (uint) {\n        return uint(keccak256(abi.encodePacked(_str))) % dnaModulus;\n    }\n\n    function _isReady(uint _zombieId) private view returns (bool) {\n        return (zombies[_zombieId].readyTime <= block.timestamp);\n    }\n\n    function _generateRandomMod(uint _modulus) private returns (uint) {\n        randomNonce++;\n        return uint(keccak256(abi.encodePacked(block.timestamp, msg.sender, randomNonce))) % _modulus;\n    }\n}\n",
  "sourcePath": "/home/zaimabbasi/Developer/crypto-zombies/contracts/CryptoZombies.sol",
  "compiler": {
    "name": "solc",
    "version": "0.8.12+commit.f00d7308.Emscripten.clang"
  },
  "schemaVersion": "3.4.4",
  "updatedAt": "2022-03-30T07:00:37.302Z",
  "networkType": "ethereum",
  "devdoc": {
    "kind": "dev",
    "methods": {
      "approve(address,uint256)": {
        "details": "See {IERC721-approve}."
      },
      "balanceOf(address)": {
        "details": "See {IERC721-balanceOf}."
      },
      "getApproved(uint256)": {
        "details": "See {IERC721-getApproved}."
      },
      "isApprovedForAll(address,address)": {
        "details": "See {IERC721-isApprovedForAll}."
      },
      "name()": {
        "details": "See {IERC721Metadata-name}."
      },
      "owner()": {
        "details": "Returns the address of the current owner."
      },
      "ownerOf(uint256)": {
        "details": "See {IERC721-ownerOf}."
      },
      "renounceOwnership()": {
        "details": "Leaves the contract without owner. It will not be possible to call `onlyOwner` functions anymore. Can only be called by the current owner. NOTE: Renouncing ownership will leave the contract without an owner, thereby removing any functionality that is only available to the owner."
      },
      "safeTransferFrom(address,address,uint256)": {
        "details": "See {IERC721-safeTransferFrom}."
      },
      "safeTransferFrom(address,address,uint256,bytes)": {
        "details": "See {IERC721-safeTransferFrom}."
      },
      "setApprovalForAll(address,bool)": {
        "details": "See {IERC721-setApprovalForAll}."
      },
      "supportsInterface(bytes4)": {
        "details": "See {IERC165-supportsInterface}."
      },
      "symbol()": {
        "details": "See {IERC721Metadata-symbol}."
      },
      "tokenURI(uint256)": {
        "details": "See {IERC721Metadata-tokenURI}."
      },
      "transferFrom(address,address,uint256)": {
        "details": "See {IERC721-transferFrom}."
      },
      "transferOwnership(address)": {
        "details": "Transfers ownership of the contract to a new account (`newOwner`). Can only be called by the current owner."
      }
    },
    "version": 1
  },
  "userdoc": {
    "kind": "user",
    "methods": {},
    "version": 1
  }
}